:08000000803102288731E92F4D
:100C9200640080010131890B4A2E0034FE001200EB
:100CA2001E00FE0B502E00347F347F347F347F349D
:100CB2007F347F347F347F347F347F344034F0009C
:100CC20021001D141D0883399D001D0870049D001C
:100CD2000530890B6A2E000021009D149D186F2E8D
:100CE2001D101C080800F030210099001A1F772EF1
:100CF2001030950020008C0122008C01033023006B
:100D02008C0021009D0160309E000F308C00083065
:100D120024008C000A30210097008B010800F200A9
:100D2200F40170080319AF2EF301F30AF01BA02E91
:100D32000310F00D0130F1007108F307972E031034
:100D4200F40D70087202031CAA2E7008F2027414C9
:100D52000310F00C0130F302031DA02E74080800EA
:100D6200F601F11FBB2EF009F109F00A0319F10A8D
:100D7200F601F60AF31FC62EF209F309F20A031965
:100D8200F30A0130F4007408F606F701F80170085E
:100D920071040319F52EF501F50AF11BDA2E013063
:100DA200F035F10D890BD12E0130F4007408F507EE
:100DB200CE2E0130F735F80D890BDB2E7108730248
:100DC200031DE52E70087202031CEC2E7008F2025D
:100DD2007108F33B77140130F136F00C890BED2EDC
:100DE2000130F502031DDA2E76080319FD2EF709EC
:100DF200F809F70A0319F80A7808F1007708F000F1
:100E02000800863174268731E43000320032890BC3
:100E1200062F003200322000A901A801A701A60175
:100E220004308631602687312000BB003B08AA00CF
:100E320080302A02031C372F2A08BB002C082D3EC3
:100E4200860087013B08810009302C060319312FE7
:100E52002C08013EBD00003003180130BE00332FC4
:100E6200BD01BE013D08BB003B08AC00AB01FD016A
:100E72000A307D0603194D2F7D082D3E860087011D
:100E82000108BB003B08AB070130BB003B08FD0774
:100E92000A307D06031D3D2F0A30BB003B08F000DF
:100EA2002B088631902687312000BC003C08AB001D
:100EB20000308400883085000008BB003B08F90040
:100EC2002B0887316F27873168302000BB00E43060
:100ED200890B692FBB0B692F00000C2F2000BA0071
:100EE200F7303A020318892F0430F0000030F10085
:100EF2003A08FA00FB017A08F2007B08F300863117
:100F0200B12687317008E13EFC007C0820008C2F5E
:100F12000830FA007A08BA0079080319080020009C
:100F22003A087902031C982FB801B9019F2F37089C
:100F3200FA00FB017A08B8007B08B9003808FA0009
:100F42007A08A0000830FA007A08FD007D0803192B
:100F5200B62F0C160000A01F0C120000A0350C12B8
:100F62000130FD027D08031DAA2F20002508FA008A
:100F72007A08A0000830FA007A08FD007D080319FB
:100F8200CE2F0C160000A01F0C120000A0350C1270
:100F92000130FD027D08031DC22F20002408FA0043
:100FA2007A08A0000830FA007A08FD007D080319CB
:100FB200E62F0C160000A01F0C120000A0350C1228
:100FC2000130FD027D08031DDA2F0130F9028D2F59
:100FD20055308400863085002D3086000030870031
:100FE2000B3086314F268731FD01203084000030DE
:100FF20085000D308631492620008731022F1E34AC
:020000040001F9
:04000E008CC9FFDFBB
:00000001FF
