:08000000803102288731E42F52
:100C3800FE0012001E00FE0B1D2E00347F347F3490
:100C48007F347F347F347F347F347F347F347F3404
:100C58004034F00021001D141D0883399D001D0833
:100C680070049D000530890B372E000021009D146B
:100C78009D183C2E1D101C080800F030210099001A
:100C88001A1F442E1030950020008C0122008C0180
:100C9800033023008C0021009D0160309E000F303E
:100CA8008C00083024008C000A30210097008B014A
:100CB8000800F601F11F672EF009F109F00A03197F
:100CC800F10AF601F60AF31F722EF209F309F20A85
:100CD8000319F30A0130F4007408F606F701F80165
:100CE800700871040319A12EF501F50AF11B862E6F
:100CF8000130F035F10D890B7D2E0130F4007408B8
:100D0800F5077A2E0130F735F80D890B872E710813
:100D18007302031D912E70087202031C982E70082E
:100D2800F2027108F33B77140130F136F00C890BAD
:100D3800992E0130F502031D862E76080319A92E77
:100D4800F709F809F70A0319F80A7808F10077088B
:100D5800F0000800F5007508203EF1007108F50064
:100D6800700803190800700875020318BE2EF301F5
:100D7800F401C62E20003508F100F2017108F300D5
:100D88007208F4007308F10071082000A000083010
:100D9800F1007108FB007B080319DE2E0C16000019
:100DA800A01F0C120000A0350C120130FB027B08BA
:100DB800031DD22E20002508F1007108A00008307C
:100DC800F1007108FB007B080319F62E0C160000D1
:100DD800A01F0C120000A0350C120130FB027B088A
:100DE800031DEA2E20002408F1007108A000083035
:100DF800F1007108FB007B0803190E2F0C16000088
:100E0800A01F0C120000A0350C120130FB027B0859
:100E1800031D022F0130F002B42E8631412687319E
:100E2800E43000320032890B152F003200322000E6
:100E3800A701FD01FC01A601043086312D2687316A
:100E48002000B6003608A800DF302802031C462F11
:100E58002808B6002A082B3E86008701360881003C
:100E680009302A060319402F2A08013EF9000030EC
:100E780003180130FA00422FF901FA017908B60087
:100E88003608AA00FB010A307B020318AB2F7B0847
:100E98002B3E86008701010827020318672F7C086C
:100EA800B6003608A6007D08B6003608FC002708FC
:100EB800B6003608FD007B082B3E86008701010836
:100EC800B6003608A7007B082B3E8600870101087C
:100ED8007D0203187F2F7C08B6003608A6007D081F
:100EE800B6003608FC007B082B3E86008701010807
:100EF800B6003608FD007B082B3E860087010108F6
:100F08007C020318932F7C08B6003608A6007B08DD
:100F18002B3E860087010108B6003608FC007B08D6
:100F28002B3E86008701010826020318A32F7B08A1
:100F38002B3E860087010108B6003608A60001305E
:100F4800B6003608FB070A307B02031C4B2F04301F
:100F5800F0000030F1002608B600B7017C08B800A0
:100F6800B90127087D07BA00BB01BB0D38083A074D
:100F7800BC0039083B3DBD0036083C07F200370885
:100F88003D3DF30086315D26873170082000BE00A4
:100F98003E08A90000308400883085000008B600AB
:100FA8003608F00029088631AE26873168302000DF
:100FB800B600E430890BDE2FB60BDE2F00001B2FA6
:100FC80022308400863085002B3086000030870070
:100FD8000B3086311C26FB01FC01FD01A001A1019B
:100FE800A201A301A401A501A601A701A801A901C5
:0A0FF800AA0120008731112F1E34DA
:020000040001F9
:04000E008CC9FFDFBB
:00000001FF
