:08000000803102288731EA2F4C
:100B5400640080010131890BAB2D0034FE001200CA
:100B64001E00FE0BB12D00347F347F347F347F347C
:100B74007F347F347F347F347F347F340134FF34D7
:100B8400F00021001D141D0883399D001D08700408
:100B94009D000530890BCC2D000021009D149D186B
:100BA400D12D1D101C080800F030210099001A1FD7
:100BB400D92D1030950020008C0122008C010330C7
:100BC40023008C0021009D0160309E000F308C00BA
:100BD400083024008C000A30210097008B010800A3
:100BE400F601F11FFC2DF009F109F00A0319F10ACD
:100BF400F601F60AF31F072EF209F309F20A0319A4
:100C0400F30A0130F4007408F606F701F8017008DD
:100C140071040319362EF501F50AF11B1B2E013060
:100C2400F035F10D890B122E0130F4007408F5072C
:100C34000F2E0130F735F80D890B1C2E7108730245
:100C4400031D262E70087202031C2D2E7008F2025A
:100C54007108F33B77140130F136F00C890B2E2E1A
:100C64000130F502031D1B2E760803193E2EF709E9
:100C7400F809F70A0319F80A7808F1007708F00070
:100C840008002000A6000830F0000030F10026081B
:100C9400C13EF200FF3003180030F3008531F22525
:100CA40086317008FA007A082000A600A7012708F8
:100CB400790603190800270826020318642EA001E8
:100CC400A1016B2E4A08FA00FB017A08A0007B08F8
:100CD400A1002008FA007A08B2000830FA007A0865
:100CE400B10031080319832E0C160000B21F0C1238
:100CF4000000B2350C1201302000B1023108031D8E
:100D0400762E2708260203188A2EA201A301912E0B
:100D14003708FA00FB017A08A2007B08A300220826
:100D2400FA007A08B2000830FA007A08B1003108F3
:100D34000319A92E0C160000B21F0C120000B235C4
:100D44000C1201302000B1023108031D9C2E27082B
:100D540026020318B02EA401A501B72E3608FA0006
:100D6400FB017A08A4007B08A5002408FA007A088D
:100D7400B2000830FA007A08B10031080319CF2E06
:100D84000C160000B21F0C120000B2350C12013018
:100D94002000B1023108031DC22E0130FA007A0886
:100DA400A707592E8531D6258631E430003200322A
:100DB400890BD82E0032003220008C19232F370AD9
:100DC400031DF62E49080319F22E0130A800280845
:100DD400CA074A0A031D232FC9010130B702232F72
:100DE4000130B60236081F2F4A0A031D0B2F49088B
:100DF4000319072F0130A8002808B607360A031D77
:100E0400232FC9010130CA02232F0130B70237084A
:100E14001F2F360A031D232F490803191C2F0130E5
:100E2400A8002808B707370A031D232FC90101307A
:100E3400B602232F0130CA024A08031D232FC90119
:100E4400C90ABB01BA01B901B80104308531C22510
:100E540086312000A8002808BC003C08A8003E08F1
:100E64003F3E860087012808810009303E060319A9
:100E7400432F3E08013EFC00003003180130FD0002
:100E8400452FFC01FD017C08A8002808BE00B10123
:100E94000A3031020318B12F31083F3E8600870122
:100EA40001083B0203186B2F3908A8002808B80072
:100EB4003A08A8002808B9003B08A8002808BA0086
:100EC40031083F3E860087010108A8002808BB00BE
:100ED400A92F31083F3E8600870101083A02031812
:100EE400842F3908A8002808B8003A08A800280860
:100EF400B90031083F3E860087010108A800280890
:100F0400BA00A92F31083F3E860087010108390243
:100F14000318992F3908A8002808B80031083F3E63
:100F2400860087010108A8002808B900A92F310804
:100F34003F3E86008701010838020318A92F3108B3
:100F44003F3E860087010108A8002808B800013048
:100F5400A8002808B1070A303102031C4E2F0430C0
:100F6400F0000030F1003808A800A9013908AA00EF
:100F7400AB013B083A07AC00AD01AD0D2A082C07C4
:100F8400AE002B082D3DAF0028082E07F2002908DB
:100F94002F3DF3008531F225863170082000B00022
:100FA4003008BD0000308400883085000008A800A7
:100FB4002808F9003D088631432686313430200064
:100FC400A800F130890BE42FA80BE42F0032DE2EA9
:100FD400B6308400853085003F30860000308700BD
:100FE4000C308531B02587313130840000308500E4
:0E0FF4000E308531AA2520008631D42E183407
:020000040001F9
:04000E008CC9FFDFBB
:00000001FF
