:08000000803102288731E92F4D
:100BFE00640080010131890B002E0034FE001200CA
:100C0E001E00FE0B062E0034803480348034803477
:100C1E008034803480348034803480344034F0002A
:100C2E0021001D141D0883399D001D0870049D00B0
:100C3E000530890B202E000021009D149D18252EB5
:100C4E001D101C080800F030210099001A1F2D2ECF
:100C5E001030950020008C0122008C0103302300FF
:100C6E008C0021009D0160309E000F308C000830FA
:100C7E0024008C000A30210097008B010800F60139
:100C8E00F11F502EF009F109F00A0319F10AF601CD
:100C9E00F60AF31F5B2EF209F309F20A0319F30A9F
:100CAE000130F4007408F606F701F80170087104BB
:100CBE0003198A2EF501F50AF11B6F2E0130F0355E
:100CCE00F10D890B662E0130F4007408F507632EC2
:100CDE000130F735F80D890B702E71087302031D64
:100CEE007A2E70087202031C812E7008F2027108AF
:100CFE00F33B77140130F136F00C890B822E013064
:100D0E00F502031D6F2E76080319922EF709F809C6
:100D1E00F70A0319F80A7808F1007708F0000800BE
:100D2E002000A200C2302202031CB92E220A03198F
:100D3E00B42E0230F0000030F1002208FA00FB0160
:100D4E007A08F2007B08F300863146268631700859
:100D5E009F3EFC007C082000B72E1E30FA007A0859
:100D6E00A200BA2EA2017908031908002000220859
:100D7E007902031CC52EA001A101CC2E4508FA0054
:100D8E00FB017A08A0007B08A1002008FA007A086F
:100D9E00AE000830FA007A08FD007D080319E32E34
:100DAE000C160000AE1F0C120000AE350C120130F6
:100DBE00FD027D08031DD72E20003308FA007A08A5
:100DCE00AE000830FA007A08FD007D080319FB2EEC
:100DDE000C160000AE1F0C120000AE350C120130C6
:100DEE00FD027D08031DEF2E20003208FA007A085E
:100DFE00AE000830FA007A08FD007D080319132FA3
:100E0E000C160000AE1F0C120000AE350C12013095
:100E1E00FD027D08031D072F0130F902BA2E86311F
:100E2E002A268731E43000320032890B1A2F003225
:100E3E0000322000B701B601B501B401043086318D
:100E4E00162687312000A3002308B800C2303802CE
:100E5E00031C4B2F3808A3003A083B3E860087013F
:100E6E002308810009303A060319452F3A08013E3E
:100E7E00AC00003003180130AD00472FAC01AD01BE
:100E8E002C08A3002308BA00FD010A307D020318C6
:100E9E00B02F7D083B3E86008701010837020318FC
:100EAE006C2F3508A3002308B4003608A3002308CE
:100EBE00B5003708A3002308B6007D083B3E860028
:100ECE0087010108A3002308B7007D083B3E86007A
:100EDE008701010836020318842F3508A300230862
:100EEE00B4003608A3002308B5007D083B3E8600FB
:100EFE0087010108A3002308B6007D083B3E86004B
:100F0E008701010835020318982F3508A30023081E
:100F1E00B4007D083B3E860087010108A30023082C
:100F2E00B5007D083B3E8600870101083402031898
:100F3E00A82F7D083B3E860087010108A3002308E9
:100F4E00B4000130A3002308FD070A307D02031C04
:100F5E00502F0430F0000030F1003408A300A4013B
:100F6E003508A500A60137083607A700A801A80D69
:100F7E0025082707A9002608283DAA0023082907C7
:100F8E00F20024082A3DF300863146268731700888
:100F9E002000AB002B08B90000308400883085009B
:100FAE000008A3002308F9003908863197268731F7
:100FBE0068302000A300E430890BE32FA30BE32F4E
:100FCE000000202F0B308400863085003B308600D9
:100FDE00003087000B30863105268731FD012E301B
:100FEE008400003085000D308531FF2520008731CB
:040FFE00162F1E3458
:020000040001F9
:04000E008CC9FFDFBB
:00000001FF
