:08000000803102288731EA2F4C
:100B3600640080010131890B9C2D0034FE001200F7
:100B46001E00FE0BA22D00347F347F347F347F34A9
:100B56007F347F347F347F347F347F3401344034B4
:100B6600F00021001D141D0883399D001D08700426
:100B76009D000530890BBD2D000021009D149D1898
:100B8600C22D1D101C080800F030210099001A1F04
:100B9600CA2D1030950020008C0122008C010330F4
:100BA60023008C0021009D0160309E000F308C00D8
:100BB600083024008C000A30210097008B010800C1
:100BC600F601F11FED2DF009F109F00A0319F10AFA
:100BD600F601F60AF31FF82DF209F309F20A0319D2
:100BE600F30A0130F4007408F606F701F8017008FC
:100BF60071040319272EF501F50AF11B0C2E01309D
:100C0600F035F10D890B032E0130F4007408F50759
:100C1600002E0130F735F80D890B0D2E7108730281
:100C2600031D172E70087202031C1E2E7008F20296
:100C36007108F33B77140130F136F00C890B1F2E47
:100C46000130F502031D0C2E760803192F2EF70925
:100C5600F809F70A0319F80A7808F1007708F0008E
:100C660008002000A7000430F0000030F10027083B
:100C7600613EF200FF3003180030F3008531E325B2
:100C860086317008FA007A082000A700A601260817
:100C960079060319080026082702031C552E270883
:100CA600031D582EA001A1015F2E4A08FA00FB0180
:100CB6007A08A0007B08A1002008FA007A08B20092
:100CC6000830FA007A08B10031080319772E0C169D
:100CD6000000B21F0C120000B2350C1201302000C9
:100CE600B1023108031D6A2E26082702031C7E2E38
:100CF6002708031D812EA201A301882E3708FA00BA
:100D0600FB017A08A2007B08A3002208FA007A08F1
:100D1600B2000830FA007A08B10031080319A02E93
:100D26000C160000B21F0C120000B2350C12013076
:100D36002000B1023108031D932E26082702031C4A
:100D4600A72E2708031DAA2EA401A501B12E360839
:100D5600FA00FB017A08A4007B08A5002408FA0023
:100D66007A08B2000830FA007A08B100310803198F
:100D7600C92E0C160000B21F0C120000B2350C1260
:100D860001302000B1023108031DBC2E0130FA00EB
:100D96007A08A6074A2E8531C7258631E430003207
:100DA6000032890BD22E0032003220008C19232FFC
:100DB60040303706031DF22E49080319EE2E013086
:100DC600A8002808CA0740304A06031D232FC90178
:100DD6000130B702232F0130B60236081F2F4030EC
:100DE6004A06031D092F49080319052F0130A800DB
:100DF6002808B60740303606031D232FC9010130E7
:100E0600CA02232F0130B70237081F2F403036069B
:100E1600031D232F490803191C2F0130A800280899
:100E2600B70740303706031D232FC9010130B6022C
:100E3600232F0130CA024A08031D232FC901C90AFC
:100E4600BB01BA01B901B80104308531B325863139
:100E56002000A8002808BC003C08A8003E083F3E29
:100E6600860087012808810009303E060319432FB2
:100E76003E08013EFC00003003180130FD00452FFE
:100E8600FC01FD017C08A8002808BE00B1010A305B
:100E960031020318B12F31083F3E86008701010851
:100EA6003B0203186B2F3908A8002808B8003A0837
:100EB600A8002808B9003B08A8002808BA0031088D
:100EC6003F3E860087010108A8002808BB00A92F1D
:100ED60031083F3E8600870101083A020318842F35
:100EE6003908A8002808B8003A08A8002808B90058
:100EF60031083F3E860087010108A8002808BA008D
:100F0600A92F31083F3E86008701010839020318E0
:100F1600992F3908A8002808B80031083F3E8600F6
:100F260087010108A8002808B900A92F31083F3E0B
:100F360086008701010838020318A92F31083F3EB1
:100F4600860087010108A8002808B8000130A8001B
:100F56002808B1070A303102031C4E2F0430F00076
:100F66000030F1003808A800A9013908AA00AB0131
:100F76003B083A07AC00AD01AD0D2A082C07AE00C0
:100F86002B082D3DAF0028082E07F20029082F3D1B
:100F9600F3008531E325863170082000B000300863
:100FA600BD0000308400883085000008A8002808AD
:100FB600F9003D0886313426863134302000A800F9
:100FC600F130890BE42FA80BE42F0032D82EA7307E
:100FD6008400853085003F308600003087000C3065
:100FE6008531A125873131308400003085000E30EF
:0C0FF60085319B2520008631CE2E18345A
:020000040001F9
:04000E008CC9FFDFBB
:00000001FF
