:08000000803102288731E82F4E
:100CF000FE0012001E00FE0B792E0034803480347A
:100D00008034803480348034803480348034803443
:100D10004034F00021001D141D0883399D001D087A
:100D200070049D000530890B932E000021009D1456
:100D30009D18982E1D101C080800F0302100990005
:100D40001A1FA02E1030950020008C0122008C016B
:100D5000033023008C0021009D0160309E000F3085
:100D60008C00083024008C000A30210097008B0191
:100D70000800F601F11FC32EF009F109F00A03196A
:100D8000F10AF601F60AF31FCE2EF209F309F20A70
:100D90000319F30A0130F4007408F606F701F801AC
:100DA000700871040319FD2EF501F50AF11BE22EFE
:100DB0000130F035F10D890BD92E0130F4007408A3
:100DC000F507D62E0130F735F80D890BE32E7108A3
:100DD0007302031DED2E70087202031CF42E7008BE
:100DE000F2027108F33B77140130F136F00C890BF5
:100DF000F52E0130F502031DE22E76080319052FAA
:100E0000F709F809F70A0319F80A7808F1007708D2
:100E1000F000080086319D268731E4300032003230
:100E2000890B0E2F0032003204308631892687313B
:100E30002000B7003708B10080303102031C3A2F80
:100E40003108B7003308203E86008701370881004B
:100E5000093033060319342F3308013EB90000303E
:100E600003180130BA00362FB901BA013908B700AA
:100E70003708B300BB010A303B0603194F2F3B086C
:100E8000203E860087010108B7003708B20701300D
:100E9000B7003708BB070A303B06031D3F2F003061
:100EA0008400883085000008B7003708F900320850
:100EB00087316827873103302000B8000830B70039
:100EC0007730890B612FB70B612FB80B612F142F6F
:100ED0002000B60080303602031C8B2FF93036021A
:100EE0000318862F0430F0000030F1003608FA00B5
:100EF000FB017A08F2007B08F3008631B9268731BE
:100F00007008E03EFC007C082000892F1E30FA00AB
:100F10007A08B6008C2FB601790803190800200062
:100F200036087902031C972FB401B5019E2F2A08B9
:100F3000FA00FB017A08B4007B08B5003408FA0017
:100F40007A08AB000830FA007A08FD007D08031922
:100F5000B52F0C160000AB1F0C120000AB350C12A5
:100F60000130FD027D08031DA92F20003008FA0082
:100F70007A08AB000830FA007A08FD007D080319F2
:100F8000CD2F0C160000AB1F0C120000AB350C125D
:100F90000130FD027D08031DC12F20002F08FA003B
:100FA0007A08AB000830FA007A08FD007D080319C2
:100FB000E52F0C160000AB1F0C120000AB350C1215
:100FC0000130FD027D08031DD92F0130F9028C2F5D
:100FD0007E30840086308500203086000030870017
:100FE0000B3086317826FD01AB01AC01AD01AE01BD
:100FF000AF01B001B101B201B301200087310A2F66
:021000001E349C
:020000040001F9
:04000E008CC9FFDFBB
:00000001FF
