:08000000803102288731E42F52
:100C3600FE0012001E00FE0B1C2E00347F347F3493
:100C46007F347F347F347F347F347F347F347F3406
:100C56004034F00021001D141D0883399D001D0835
:100C660070049D000530890B362E000021009D146E
:100C76009D183B2E1D101C080800F030210099001D
:100C86001A1F432E1030950020008C0122008C0183
:100C9600033023008C0021009D0160309E000F3040
:100CA6008C00083024008C000A30210097008B014C
:100CB6000800F601F11F662EF009F109F00A031982
:100CC600F10AF601F60AF31F712EF209F309F20A88
:100CD6000319F30A0130F4007408F606F701F80167
:100CE600700871040319A02EF501F50AF11B852E73
:100CF6000130F035F10D890B7C2E0130F4007408BB
:100D0600F507792E0130F735F80D890B862E710817
:100D16007302031D902E70087202031C972E700832
:100D2600F2027108F33B77140130F136F00C890BAF
:100D3600982E0130F502031D852E76080319A82E7C
:100D4600F709F809F70A0319F80A7808F10077088D
:100D5600F0000800F3007008031908007008730219
:100D66000318B82EF401F501C02E20003508F10055
:100D7600F2017108F4007208F5007408F1007108B8
:100D86002000A0000830F1007108FB007B08031961
:100D9600D82E0C160000A01F0C120000A0350C1255
:100DA6000130FB027B08031DCC2E20002508F10034
:100DB6007108A0000830F1007108FB007B080319D8
:100DC600F02E0C160000A01F0C120000A0350C120D
:100DD6000130FB027B08031DE42E20002408F100ED
:100DE6007108A0000830F1007108FB007B080319A8
:100DF600082F0C160000A01F0C120000A0350C12C4
:100E06000130FB027B08031DFC2E0130F002AE2EE2
:100E1600863140268731E43000320032890B0F2FAD
:100E2600003200322000A701FD01FC01A6010430BA
:100E360086312C2687312000B6003608A8002808FF
:100E4600B6002A082B3E8600870136088100093045
:100E56002A060319362F2A08013EF9000030031826
:100E66000130FA00382FF901FA017908B600360880
:100E7600AA00FB010A307B020318A42F7B082B3E35
:100E8600860087010108270203185E2F7C08B6003A
:100E96003608A6007D08B6003608FC002708B6000E
:100EA6003608FD007B082B3E860087010108B60048
:100EB6003608A7009C2F7B082B3E86008701010879
:100EC6007D020318772F7C08B6003608A6007D0839
:100ED600B6003608FC007B082B3E86008701010819
:100EE600B6003608FD009C2F7B082B3E8600870146
:100EF60001087C0203188C2F7C08B6003608A60071
:100F06007B082B3E860087010108B6003608FC00E8
:100F16009C2F7B082B3E86008701010826020318BA
:100F26009C2F7B082B3E860087010108B6003608F9
:100F3600A6000130B6003608FB070A307B02031C08
:100F4600412F0430F0000030F1002608B600B7014A
:100F56007C08B800B90127087D07BA00BB01BB0DA4
:100F660038083A07BC0039083B3DBD0036083C0747
:100F7600F20037083D3DF30086315C268731700864
:100F86002000BE003E08A90000308400893085009C
:100F96000008B6003608F0002908003E84008830B4
:100FA6000318013E850000088631AD2687313430AE
:100FB6002000B600F130890BDE2FB60BDE2F003293
:100FC600152F21308400863085002B3086000030B6
:100FD60087000B3086311B26FB01FC01FD01A001B9
:100FE600A101A201A301A401A501A601A701A801CF
:100FF600A901AA01200087310B2F003400340034E8
:10100600003400340034003400340034003400343A
:10101600003400340034003400340034003400342A
:10102600003400340034003400340034003400341A
:10103600003400340034003400340034003400340A
:1010460000340034003400340034003400340034FA
:1010560000340034003400340034003400340034EA
:1010660000340034003400340034003400340034DA
:1010760000340034003400340034003400340034CA
:1010860000340034003400340034003400340034BA
:1010960000340034003400340034003400340034AA
:1010A6000034003400340034003401340134013497
:1010B6000234023402340234033403340334043475
:1010C6000434043404340534053405340634063453
:1010D6000634063407340734073408340834083431
:1010E60008340934093409340A340A340A340A340F
:1010F6000B340B340B340C340C340C340C340D34EC
:101106000D340D340E340E340E340E340F340F34C9
:101116000F341034103410341034113411341134A7
:101126001234123412341234133413341334143484
:101136001434143414341534153415341634163462
:101146001634163417341734173418341834183440
:1011560018341934193419341A341A341A341A341E
:101166001B341B341B341C341C341C341C341D34FB
:101176001D341D341E341E341E341E341E341E34DB
:101186001E341E341E341E34003400340034003441
:1011960000340034003400340034003400340034A9
:1011A6000034003400340034003400340034003499
:1011B60000340034DD34DE34DF34E034E134E2344C
:1011C600E334E434E534E6340034013402340434E0
:1011D6000634083409340A340C340E340F3410340F
:1011E60012341434163418341A341B341C341D3497
:0C11F6001E341E341E341E341E341E3401
:020000040001F9
:04000E008CC9FFDFBB
:00000001FF
