:08000000803102288731E92F4D
:100BF600640080010131890BFC2D0034FE001200D7
:100C06001E00FE0B022E0034803480348034803483
:100C16008034803480348034803480344034F00032
:100C260021001D141D0883399D001D0870049D00B8
:100C36000530890B1C2E000021009D149D18212EC5
:100C46001D101C080800F030210099001A1F292EDB
:100C56001030950020008C0122008C010330230007
:100C66008C0021009D0160309E000F308C00083002
:100C760024008C000A30210097008B010800F60141
:100C8600F11F4C2EF009F109F00A0319F10AF601D9
:100C9600F60AF31F572EF209F309F20A0319F30AAB
:100CA6000130F4007408F606F701F80170087104C3
:100CB6000319862EF501F50AF11B6B2E0130F0356E
:100CC600F10D890B622E0130F4007408F5075F2ED2
:100CD6000130F735F80D890B6C2E71087302031D70
:100CE600762E70087202031C7D2E7008F2027108BF
:100CF600F33B77140130F136F00C890B7E2E013070
:100D0600F502031D6B2E760803198E2EF709F809D6
:100D1600F70A0319F80A7808F1007708F0000800C6
:100D26002000A20080302202031CB62EF9302202D7
:100D36000318B12E0430F0000030F1002208FA004A
:100D4600FB017A08F2007B08F300863142268631E1
:100D56007008E03EFC007C082000B42E1E30FA002D
:100D66007A08A200B72EA20179080319080020000C
:100D760022087902031CC22EA001A101C92E450832
:100D8600FA00FB017A08A0007B08A1002008FA00FF
:100D96007A08AE000830FA007A08FD007D080319CB
:100DA600E02E0C160000AE1F0C120000AE350C1221
:100DB6000130FD027D08031DD42E20003308FA0001
:100DC6007A08AE000830FA007A08FD007D0803199B
:100DD600F82E0C160000AE1F0C120000AE350C12D9
:100DE6000130FD027D08031DEC2E20003208FA00BA
:100DF6007A08AE000830FA007A08FD007D0803196B
:100E0600102F0C160000AE1F0C120000AE350C128F
:100E16000130FD027D08031D042F0130F902B72EB3
:100E2600863126268731E43000320032890B172FAF
:100E3600003200322000B701B601B501B40104301A
:100E46008631122687312000A3002308B80080309F
:100E56003802031C482F3808A3003A083B3E860098
:100E660087012308810009303A060319422F3A0800
:100E7600013EAC00003003180130AD00442FAC0138
:100E8600AD012C08A3002308BA00FD010A307D023B
:100E96000318AD2F7D083B3E860087010108370207
:100EA6000318692F3508A3002308B4003608A300E9
:100EB6002308B5003708A3002308B6007D083B3E8B
:100EC600860087010108A3002308B7007D083B3E82
:100ED60086008701010836020318812F3508A30012
:100EE6002308B4003608A3002308B5007D083B3E5E
:100EF600860087010108A3002308B6007D083B3E53
:100F060086008701010835020318952F3508A300CE
:100F16002308B4007D083B3E860087010108A30034
:100F26002308B5007D083B3E860087010108340290
:100F36000318A52F7D083B3E860087010108A30004
:100F46002308B4000130A3002308FD070A307D0200
:100F5600031C4D2F0430F0000030F1003408A300CC
:100F6600A4013508A500A60137083607A700A80181
:100F7600A80D25082707A9002608283DAA0023084A
:100F86002907F20024082A3DF300863142268731DC
:100F960070082000AB002B08B900003084008830B0
:100FA60085000008A3002308F90039088631932636
:100FB600873103302000A4000830A3007730890B66
:100FC600E22FA30BE22FA40BE22F1D2F0730840084
:100FD600863085003B308600003087000B30863136
:100FE60001268731FD012E308400003085000D304A
:0C0FF6008531FB2520008731132F1E34AD
:020000040001F9
:04000E008CC9FFDFBB
:00000001FF
