:08000000803102288731EA2F4C
:100C1E00640080010131890B102E0034FE00120099
:100C2E001E00FE0B162E00347F347F347F347F344B
:100C3E007F347F347F347F347F347F344034F00010
:100C4E0021001D141D0883399D001D0870049D0090
:100C5E000530890B302E000021009D149D18352E75
:100C6E001D101C080800F030210099001A1F3D2E9F
:100C7E001030950020008C0122008C0103302300DF
:100C8E008C0021009D0160309E000F308C000830DA
:100C9E0024008C000A30210097008B010800F60119
:100CAE00F11F602EF009F109F00A0319F10AF6019D
:100CBE00F60AF31F6B2EF209F309F20A0319F30A6F
:100CCE000130F4007408F606F701F801700871049B
:100CDE0003199A2EF501F50AF11B7F2E0130F0351E
:100CEE00F10D890B762E0130F4007408F507732E82
:100CFE000130F735F80D890B802E71087302031D34
:100D0E008A2E70087202031C912E7008F20271086E
:100D1E00F33B77140130F136F00C890B922E013033
:100D2E00F502031D7F2E76080319A22EF709F80986
:100D3E00F70A0319F80A7808F1007708F00008009E
:100D4E002000B0000830F0000030F1003008C13E45
:100D5E00F200FF3003180030F3008631562686313C
:100D6E007008FA007A082000B0007908031908000C
:100D7E00790830020318C62EAE01AF01CD2E4408FD
:100D8E00FA00FB017A08AE007B08AF002E08FA00CD
:100D9E007A08A1000830FA007A08A000200803198A
:100DAE00E52E0C160000A11F0C120000A1350C122E
:100DBE0001302000A0022008031DD82E2608FA00BC
:100DCE007A08A1000830FA007A08A000200803195A
:100DDE00FD2E0C160000A11F0C120000A1350C12E6
:100DEE0001302000A0022008031DF02E2508FA0075
:100DFE007A08A1000830FA007A08A000200803192A
:100E0E00152F0C160000A11F0C120000A1350C129C
:100E1E0001302000A0022008031D082F0130F90226
:100E2E00BC2E86313A268731E43000320032890BEF
:100E3E001C2F003200322000AA01A901A801A7012F
:100E4E0004308631262687312000B1003108AB00F0
:100E5E002B08B1002D083A3E86008701310881002B
:100E6E0009302D060319432F2D08013EFC000030DA
:100E7E0003180130FD00452FFC01FD017C08B10077
:100E8E003108AD00A0010A3020020318B12F20084E
:100E9E003A3E8600870101082A0203186B2F2808A4
:100EAE00B1003108A7002908B1003108A8002A08AE
:100EBE00B1003108A90020083A3E860087010108DA
:100ECE00B1003108AA00A92F20083A3E86008701FA
:100EDE00010829020318842F2808B1003108A70041
:100EEE002908B1003108A80020083A3E8600870183
:100EFE000108B1003108A900A92F20083A3E86004A
:100F0E008701010828020318992F2808B10031081B
:100F1E00A70020083A3E860087010108B10031087B
:100F2E00A800A92F20083A3E860087010108270253
:100F3E000318A92F20083A3E860087010108B10048
:100F4E003108A7000130B1003108A0070A30200295
:100F5E00031C4E2F0430F0000030F1002708B100C2
:100F6E00B2012808B300B4012A082907B500B6015A
:100F7E00B60D33083507B7003408363DB8003108D2
:100F8E003707F2003208383DF30086315626873196
:100F9E0070082000B9003908AC0000308400893098
:100FAE0085000008B1003108F9002C088631A7260B
:100FBE00873134302000B100F130890BE42FB10BB2
:100FCE00E42F0032222F1B308400863085003A3009
:100FDE008600003087000B30863115268731203091
:100FEE008400003085000E3086310F2620008731B8
:100FFE00182F003400340034003400340034003430
:10100E000034003400340034003400340034003432
:10101E000034003400340034003400340034003422
:10102E000034003400340034003400340034003412
:10103E000034003400340034003400340034003402
:10104E0000340034003400340034003400340034F2
:10105E0000340034003400340034003400340034E2
:10106E0000340034003400340034003400340034D2
:10107E0000340034003400340034003400340034C2
:10108E0000340034003400340034003400340034B2
:10109E0000340034003400340034003400340034A2
:1010AE000034013401340134023402340234023487
:1010BE000334033403340434043404340434053464
:1010CE000534053406340634063406340734073442
:1010DE000734083408340834083409340934093420
:1010EE000A340A340A340A340B340B340B340C34FD
:1010FE000C340C340C340D340D340D340E340E34DB
:10110E000E340E340F340F340F34103410341034B8
:10111E001034113411341134123412341234123496
:10112E001334133413341434143414341434153473
:10113E001534153416341634163416341734173451
:10114E00173418341834183418341934193419342F
:10115E001A341A341A341A341B341B341B341C340C
:10116E001C341C341C341D341D341D341E341E34EA
:10117E001E341E341E341E341E341E341E341E34D1
:10118E0000340034003400340034003400340034B1
:10119E0000340034003400340034003400340034A1
:1011AE00003400340034003400340034DD34DE34D6
:1011BE00DF34E034E134E234E334E434E534E6346D
:1011CE0000340134023404340634083409340A3449
:1011DE000C340E340F3410341234143416341834D4
:1011EE001A341B341C341D341E341E341E341E346B
:0411FE001E341E3449
:020000040001F9
:04000E008CC9FFDFBB
:00000001FF
