:08000000803102288731E22F54
:100E58000234FE34FE34FE0012001E00FE0B302F5A
:100E68000034FF34FF34FF3400340034EE340034EF
:100E78008C34D734FF3400348234003400340034E6
:100E88000034FF34EE34F030210099001A1F4A2F45
:100E98001030950020008C0122008C0103302300C3
:100EA8008C0021009D0160309E000F308C000830BE
:100EB80024008C000A30210097008B01080087313C
:100EC80047278731E43000320032890B672F003220
:100ED800003200308400883085000008873181277F
:100EE80087310D30F7002D30F600D830890B7A2F76
:100EF800F60B7A2FF70B7A2F6D2FF500F201750894
:100F0800031908000130F4007408F207063072066D
:100F18000319F2017208263E860087010108F400D1
:100F28007408F1000830F4007408F0007008031920
:100F3800A92F0C160000F11F0C120000F1350C123D
:100F48000130F0027008031D9D2F7208203E8600B4
:100F580087010108F4007408F1000830F4007408EF
:100F6800F00070080319C42F0C160000F11F0C12B2
:100F78000000F1350C120130F0027008031DB82F83
:100F880072082C3E860087010108F4007408F100FD
:100F98000830F4007408F00070080319DF2F0C16ED
:100FA8000000F11F0C120000F1350C120130F002A4
:100FB8007008031DD32F0130F502832F2C308400D5
:100FC800873085007830860000308700033087310D
:100FD8002F27873135308400873085002030860000
:100FE80000308700123087312F27F001F101F2011C
:0A0FF800F30120008731632F1E343F
:020000040001F9
:04000E008CC9FFDFBB
:00000001FF
